{
  "_format": "hh-sol-artifact-1",
  "contractName": "PolyverseToken",
  "sourceName": "contracts/basic-solidity-examples/PolyverseToken.sol",
  "abi": [
    {
      "inputs": [],
      "stateMutability": "nonpayable",
      "type": "constructor"
    },
    {
      "anonymous": false,
      "inputs": [
        {
          "indexed": true,
          "internalType": "address",
          "name": "owner",
          "type": "address"
        },
        {
          "indexed": true,
          "internalType": "address",
          "name": "spender",
          "type": "address"
        },
        {
          "indexed": false,
          "internalType": "uint256",
          "name": "value",
          "type": "uint256"
        }
      ],
      "name": "Approval",
      "type": "event"
    },
    {
      "anonymous": false,
      "inputs": [
        {
          "indexed": true,
          "internalType": "address",
          "name": "previousOwner",
          "type": "address"
        },
        {
          "indexed": true,
          "internalType": "address",
          "name": "newOwner",
          "type": "address"
        }
      ],
      "name": "OwnershipTransferred",
      "type": "event"
    },
    {
      "anonymous": false,
      "inputs": [
        {
          "indexed": true,
          "internalType": "address",
          "name": "from",
          "type": "address"
        },
        {
          "indexed": true,
          "internalType": "address",
          "name": "to",
          "type": "address"
        },
        {
          "indexed": false,
          "internalType": "uint256",
          "name": "value",
          "type": "uint256"
        }
      ],
      "name": "Transfer",
      "type": "event"
    },
    {
      "inputs": [
        {
          "internalType": "address",
          "name": "owner",
          "type": "address"
        },
        {
          "internalType": "address",
          "name": "spender",
          "type": "address"
        }
      ],
      "name": "allowance",
      "outputs": [
        {
          "internalType": "uint256",
          "name": "",
          "type": "uint256"
        }
      ],
      "stateMutability": "view",
      "type": "function"
    },
    {
      "inputs": [
        {
          "internalType": "address",
          "name": "spender",
          "type": "address"
        },
        {
          "internalType": "uint256",
          "name": "amount",
          "type": "uint256"
        }
      ],
      "name": "approve",
      "outputs": [
        {
          "internalType": "bool",
          "name": "",
          "type": "bool"
        }
      ],
      "stateMutability": "nonpayable",
      "type": "function"
    },
    {
      "inputs": [
        {
          "internalType": "address",
          "name": "account",
          "type": "address"
        }
      ],
      "name": "balanceOf",
      "outputs": [
        {
          "internalType": "uint256",
          "name": "",
          "type": "uint256"
        }
      ],
      "stateMutability": "view",
      "type": "function"
    },
    {
      "inputs": [
        {
          "internalType": "uint256",
          "name": "amount",
          "type": "uint256"
        }
      ],
      "name": "burn",
      "outputs": [],
      "stateMutability": "nonpayable",
      "type": "function"
    },
    {
      "inputs": [
        {
          "internalType": "address",
          "name": "account",
          "type": "address"
        },
        {
          "internalType": "uint256",
          "name": "amount",
          "type": "uint256"
        }
      ],
      "name": "burnFrom",
      "outputs": [],
      "stateMutability": "nonpayable",
      "type": "function"
    },
    {
      "inputs": [],
      "name": "decimals",
      "outputs": [
        {
          "internalType": "uint8",
          "name": "",
          "type": "uint8"
        }
      ],
      "stateMutability": "view",
      "type": "function"
    },
    {
      "inputs": [
        {
          "internalType": "address",
          "name": "spender",
          "type": "address"
        },
        {
          "internalType": "uint256",
          "name": "subtractedValue",
          "type": "uint256"
        }
      ],
      "name": "decreaseAllowance",
      "outputs": [
        {
          "internalType": "bool",
          "name": "",
          "type": "bool"
        }
      ],
      "stateMutability": "nonpayable",
      "type": "function"
    },
    {
      "inputs": [
        {
          "internalType": "address",
          "name": "_holder",
          "type": "address"
        }
      ],
      "name": "getUserBalance",
      "outputs": [
        {
          "internalType": "uint256",
          "name": "",
          "type": "uint256"
        }
      ],
      "stateMutability": "view",
      "type": "function"
    },
    {
      "inputs": [
        {
          "internalType": "address",
          "name": "spender",
          "type": "address"
        },
        {
          "internalType": "uint256",
          "name": "addedValue",
          "type": "uint256"
        }
      ],
      "name": "increaseAllowance",
      "outputs": [
        {
          "internalType": "bool",
          "name": "",
          "type": "bool"
        }
      ],
      "stateMutability": "nonpayable",
      "type": "function"
    },
    {
      "inputs": [
        {
          "internalType": "uint256",
          "name": "amount",
          "type": "uint256"
        }
      ],
      "name": "mint",
      "outputs": [],
      "stateMutability": "payable",
      "type": "function"
    },
    {
      "inputs": [],
      "name": "name",
      "outputs": [
        {
          "internalType": "string",
          "name": "",
          "type": "string"
        }
      ],
      "stateMutability": "view",
      "type": "function"
    },
    {
      "inputs": [],
      "name": "owner",
      "outputs": [
        {
          "internalType": "address",
          "name": "",
          "type": "address"
        }
      ],
      "stateMutability": "view",
      "type": "function"
    },
    {
      "inputs": [],
      "name": "renounceOwnership",
      "outputs": [],
      "stateMutability": "nonpayable",
      "type": "function"
    },
    {
      "inputs": [],
      "name": "symbol",
      "outputs": [
        {
          "internalType": "string",
          "name": "",
          "type": "string"
        }
      ],
      "stateMutability": "view",
      "type": "function"
    },
    {
      "inputs": [],
      "name": "totalSupply",
      "outputs": [
        {
          "internalType": "uint256",
          "name": "",
          "type": "uint256"
        }
      ],
      "stateMutability": "view",
      "type": "function"
    },
    {
      "inputs": [
        {
          "internalType": "address",
          "name": "to",
          "type": "address"
        },
        {
          "internalType": "uint256",
          "name": "amount",
          "type": "uint256"
        }
      ],
      "name": "transfer",
      "outputs": [
        {
          "internalType": "bool",
          "name": "",
          "type": "bool"
        }
      ],
      "stateMutability": "nonpayable",
      "type": "function"
    },
    {
      "inputs": [
        {
          "internalType": "address",
          "name": "from",
          "type": "address"
        },
        {
          "internalType": "address",
          "name": "to",
          "type": "address"
        },
        {
          "internalType": "uint256",
          "name": "amount",
          "type": "uint256"
        }
      ],
      "name": "transferFrom",
      "outputs": [
        {
          "internalType": "bool",
          "name": "",
          "type": "bool"
        }
      ],
      "stateMutability": "nonpayable",
      "type": "function"
    },
    {
      "inputs": [
        {
          "internalType": "address",
          "name": "newOwner",
          "type": "address"
        }
      ],
      "name": "transferOwnership",
      "outputs": [],
      "stateMutability": "nonpayable",
      "type": "function"
    }
  ],
  "bytecode": "0x60806040523480156200001157600080fd5b506040518060400160405280600e81526020016d2837b63cbb32b939b2aa37b5b2b760911b8152506040518060400160405280600381526020016214159560ea1b8152508160039081620000669190620002d3565b506004620000758282620002d3565b505050620000926200008c620000c160201b60201c565b620000c5565b620000bb30620000a56012600a620004ea565b620000b5906305f5e10062000501565b62000117565b62000582565b3390565b600580546001600160a01b038381166001600160a01b0319831681179093556040519116919082907f8be0079c531659141344cd1fd0a4f28419497f9722a3daafe3b4186f6b6457e090600090a35050565b6001600160a01b038216620001495760405162461bcd60e51b8152600401620001409062000523565b60405180910390fd5b80600260008282546200015d91906200055f565b90915550506001600160a01b038216600081815260208190526040808220805485019055517fddf252ad1be2c89b69c2b068fc378daa952ba7f163c4a11628f55a4df523b3ef90620001b190859062000575565b60405180910390a35b5050565b505050565b634e487b7160e01b600052604160045260246000fd5b634e487b7160e01b600052602260045260246000fd5b6002810460018216806200020457607f821691505b602082108103620002195762000219620001d9565b50919050565b6000620002306200022d8381565b90565b92915050565b62000241836200021f565b81546008840282811b60001990911b908116901990911617825550505050565b6000620001be81848462000236565b81811015620001ba576200028660008262000261565b60010162000270565b601f821115620001be576000818152602090206020601f85010481016020851015620002b85750805b620002cc6020601f86010483018262000270565b5050505050565b81516001600160401b03811115620002ef57620002ef620001c3565b620002fb8254620001ef565b620003088282856200028f565b6020601f8311600181146200033f5760008415620003265750858201515b600019600886021c19811660028602178655506200039b565b600085815260208120601f198616915b828110156200037157888501518255602094850194600190920191016200034f565b868310156200038e5784890151600019601f89166008021c191682555b6001600288020188555050505b505050505050565b634e487b7160e01b600052601160045260246000fd5b80825b6001851115620003ff57808604811115620003db57620003db620003a3565b6001851615620003ea57908102905b8002620003f78560011c90565b9450620003bc565b94509492505050565b6000826200041957506001620004e3565b816200042857506000620004e3565b81600181146200044157600281146200044c5762000480565b6001915050620004e3565b60ff841115620004605762000460620003a3565b8360020a915084821115620004795762000479620003a3565b50620004e3565b5060208310610133831016604e8410600b8410161715620004b8575081810a83811115620004b257620004b2620003a3565b620004e3565b620004c78484846001620003b9565b92509050818404811115620004e057620004e0620003a3565b81025b9392505050565b600060ff83169250620004e3600019848462000408565b8181028082158382048514176200051c576200051c620003a3565b5092915050565b602080825281016200023081601f81527f45524332303a206d696e7420746f20746865207a65726f206164647265737300602082015260400190565b80820180821115620002305762000230620003a3565b8181526020810162000230565b6111a780620005926000396000f3fe6080604052600436106101295760003560e01c8063715018a6116100a5578063a0712d6811610074578063a9059cbb11610059578063a9059cbb1461031b578063dd62ed3e1461033b578063f2fde38b1461038157600080fd5b8063a0712d68146102e8578063a457c2d7146102fb57600080fd5b8063715018a61461027857806379cc67901461028d5780638da5cb5b146102ad57806395d89b41146102d357600080fd5b8063313ce567116100fc57806342966c68116100e157806342966c6814610200578063477348921461022257806370a082311461024257600080fd5b8063313ce567146101c457806339509351146101e057600080fd5b806306fdde031461012e578063095ea7b31461015957806318160ddd1461018657806323b872dd146101a4575b600080fd5b34801561013a57600080fd5b506101436103a1565b6040516101509190610a36565b60405180910390f35b34801561016557600080fd5b50610179610174366004610a8f565b610433565b6040516101509190610ad6565b34801561019257600080fd5b506002545b6040516101509190610aea565b3480156101b057600080fd5b506101796101bf366004610af8565b61044d565b3480156101d057600080fd5b5060126040516101509190610b51565b3480156101ec57600080fd5b506101796101fb366004610a8f565b610471565b34801561020c57600080fd5b5061022061021b366004610b5f565b6104b0565b005b34801561022e57600080fd5b5061019761023d366004610b88565b6104bd565b34801561024e57600080fd5b5061019761025d366004610b88565b6001600160a01b031660009081526020819052604090205490565b34801561028457600080fd5b506102206104db565b34801561029957600080fd5b506102206102a8366004610a8f565b6104ef565b3480156102b957600080fd5b506005546001600160a01b03166040516101509190610bb2565b3480156102df57600080fd5b50610143610508565b6102206102f6366004610b5f565b610517565b34801561030757600080fd5b50610179610316366004610a8f565b610560565b34801561032757600080fd5b50610179610336366004610a8f565b6105b4565b34801561034757600080fd5b50610197610356366004610bc0565b6001600160a01b03918216600090815260016020908152604080832093909416825291909152205490565b34801561038d57600080fd5b5061022061039c366004610b88565b6105c2565b6060600380546103b090610c09565b80601f01602080910402602001604051908101604052809291908181526020018280546103dc90610c09565b80156104295780601f106103fe57610100808354040283529160200191610429565b820191906000526020600020905b81548152906001019060200180831161040c57829003601f168201915b5050505050905090565b6000336104418185856105f9565b60019150505b92915050565b60003361045b8582856106ad565b61046685858561070f565b506001949350505050565b3360008181526001602090815260408083206001600160a01b038716845290915281205490919061044190829086906104ab908790610c4b565b6105f9565b6104ba33826107ff565b50565b6001600160a01b038116600090815260208190526040812054610447565b6104e36108b6565b6104ed60006108e0565b565b6104fa8233836106ad565b61050482826107ff565b5050565b6060600480546103b090610c09565b600061052b8267013fbe85edc90000610c5e565b9050803410156105565760405162461bcd60e51b815260040161054d90610cda565b60405180910390fd5b610504338361094a565b3360008181526001602090815260408083206001600160a01b0387168452909152812054909190838110156105a75760405162461bcd60e51b815260040161054d90610d44565b61046682868684036105f9565b60003361044181858561070f565b6105ca6108b6565b6001600160a01b0381166105f05760405162461bcd60e51b815260040161054d90610dae565b6104ba816108e0565b6001600160a01b03831661061f5760405162461bcd60e51b815260040161054d90610e18565b6001600160a01b0382166106455760405162461bcd60e51b815260040161054d90610e82565b6001600160a01b0380841660008181526001602090815260408083209487168084529490915290819020849055517f8c5be1e5ebec7d5bd14f71427d1e84f3dd0314c0f7b2291e5b200ac8c7c3b925906106a0908590610aea565b60405180910390a3505050565b6001600160a01b03838116600090815260016020908152604080832093861683529290522054600019811461070957818110156106fc5760405162461bcd60e51b815260040161054d90610ec9565b61070984848484036105f9565b50505050565b6001600160a01b0383166107355760405162461bcd60e51b815260040161054d90610f33565b6001600160a01b03821661075b5760405162461bcd60e51b815260040161054d90610f9d565b6001600160a01b038316600090815260208190526040902054818110156107945760405162461bcd60e51b815260040161054d90611007565b6001600160a01b0380851660008181526020819052604080822086860390559286168082529083902080548601905591517fddf252ad1be2c89b69c2b068fc378daa952ba7f163c4a11628f55a4df523b3ef906107f2908690610aea565b60405180910390a3610709565b6001600160a01b0382166108255760405162461bcd60e51b815260040161054d90611071565b6001600160a01b0382166000908152602081905260409020548181101561085e5760405162461bcd60e51b815260040161054d906110db565b6001600160a01b0383166000818152602081905260408082208585039055600280548690039055519091907fddf252ad1be2c89b69c2b068fc378daa952ba7f163c4a11628f55a4df523b3ef906106a0908690610aea565b6005546001600160a01b031633146104ed5760405162461bcd60e51b815260040161054d9061111d565b600580546001600160a01b038381167fffffffffffffffffffffffff0000000000000000000000000000000000000000831681179093556040519116919082907f8be0079c531659141344cd1fd0a4f28419497f9722a3daafe3b4186f6b6457e090600090a35050565b6001600160a01b0382166109705760405162461bcd60e51b815260040161054d90611161565b80600260008282546109829190610c4b565b90915550506001600160a01b038216600081815260208190526040808220805485019055517fddf252ad1be2c89b69c2b068fc378daa952ba7f163c4a11628f55a4df523b3ef906109d4908590610aea565b60405180910390a35050565b60005b838110156109fb5781810151838201526020016109e3565b50506000910152565b6000610a0e825190565b808452602084019350610a258185602086016109e0565b601f01601f19169290920192915050565b60208082528101610a478184610a04565b9392505050565b60006001600160a01b038216610447565b610a6881610a4e565b81146104ba57600080fd5b803561044781610a5f565b80610a68565b803561044781610a7e565b60008060408385031215610aa557610aa5600080fd5b6000610ab18585610a73565b9250506020610ac285828601610a84565b9150509250929050565b8015155b82525050565b602081016104478284610acc565b80610ad0565b602081016104478284610ae4565b600080600060608486031215610b1057610b10600080fd5b6000610b1c8686610a73565b9350506020610b2d86828701610a73565b9250506040610b3e86828701610a84565b9150509250925092565b60ff8116610ad0565b602081016104478284610b48565b600060208284031215610b7457610b74600080fd5b6000610b808484610a84565b949350505050565b600060208284031215610b9d57610b9d600080fd5b6000610b808484610a73565b610ad081610a4e565b602081016104478284610ba9565b60008060408385031215610bd657610bd6600080fd5b6000610be28585610a73565b9250506020610ac285828601610a73565b634e487b7160e01b600052602260045260246000fd5b600281046001821680610c1d57607f821691505b602082108103610c2f57610c2f610bf3565b50919050565b634e487b7160e01b600052601160045260246000fd5b8082018082111561044757610447610c35565b818102808215838204851417610c7657610c76610c35565b5092915050565b602181526000602082017f757365206e65656420746f207061792066656520746f206d696e7420746f6b6581527f6e00000000000000000000000000000000000000000000000000000000000000602082015291505b5060400190565b6020808252810161044781610c7d565b602581526000602082017f45524332303a2064656372656173656420616c6c6f77616e63652062656c6f7781527f207a65726f00000000000000000000000000000000000000000000000000000060208201529150610cd3565b6020808252810161044781610cea565b602681526000602082017f4f776e61626c653a206e6577206f776e657220697320746865207a65726f206181527f646472657373000000000000000000000000000000000000000000000000000060208201529150610cd3565b6020808252810161044781610d54565b602481526000602082017f45524332303a20617070726f76652066726f6d20746865207a65726f2061646481527f726573730000000000000000000000000000000000000000000000000000000060208201529150610cd3565b6020808252810161044781610dbe565b602281526000602082017f45524332303a20617070726f766520746f20746865207a65726f20616464726581527f737300000000000000000000000000000000000000000000000000000000000060208201529150610cd3565b6020808252810161044781610e28565b601d81526000602082017f45524332303a20696e73756666696369656e7420616c6c6f77616e6365000000815291505b5060200190565b6020808252810161044781610e92565b602581526000602082017f45524332303a207472616e736665722066726f6d20746865207a65726f20616481527f647265737300000000000000000000000000000000000000000000000000000060208201529150610cd3565b6020808252810161044781610ed9565b602381526000602082017f45524332303a207472616e7366657220746f20746865207a65726f206164647281527f657373000000000000000000000000000000000000000000000000000000000060208201529150610cd3565b6020808252810161044781610f43565b602681526000602082017f45524332303a207472616e7366657220616d6f756e742065786365656473206281527f616c616e6365000000000000000000000000000000000000000000000000000060208201529150610cd3565b6020808252810161044781610fad565b602181526000602082017f45524332303a206275726e2066726f6d20746865207a65726f2061646472657381527f730000000000000000000000000000000000000000000000000000000000000060208201529150610cd3565b6020808252810161044781611017565b602281526000602082017f45524332303a206275726e20616d6f756e7420657863656564732062616c616e81527f636500000000000000000000000000000000000000000000000000000000000060208201529150610cd3565b6020808252810161044781611081565b60208082527f4f776e61626c653a2063616c6c6572206973206e6f7420746865206f776e657291019081526000610ec2565b60208082528101610447816110eb565b601f81526000602082017f45524332303a206d696e7420746f20746865207a65726f20616464726573730081529150610ec2565b602080825281016104478161112d56fea2646970667358221220ddcbb14a247620ccfbbba1cc2ddc0ab51cc706c8f0e94734206eaa05359f913064736f6c63430008110033",
  "linkReferences": {},
  "deployedLinkReferences": {}
}