{
  "_format": "hh-sol-artifact-1",
  "contractName": "Polyverse",
  "sourceName": "contracts/basic-solidity-examples/Polyverse.sol",
  "abi": [
    {
      "inputs": [
        {
          "internalType": "address",
          "name": "_tokenAddress",
          "type": "address"
        }
      ],
      "stateMutability": "nonpayable",
      "type": "constructor"
    },
    {
      "anonymous": false,
      "inputs": [
        {
          "indexed": true,
          "internalType": "uint256",
          "name": "id",
          "type": "uint256"
        },
        {
          "indexed": false,
          "internalType": "uint256",
          "name": "subscriptionFee",
          "type": "uint256"
        }
      ],
      "name": "CreatorAdded",
      "type": "event"
    },
    {
      "anonymous": false,
      "inputs": [
        {
          "indexed": true,
          "internalType": "uint256",
          "name": "eventId",
          "type": "uint256"
        },
        {
          "indexed": false,
          "internalType": "address",
          "name": "owner",
          "type": "address"
        },
        {
          "indexed": false,
          "internalType": "uint256",
          "name": "maxParticipants",
          "type": "uint256"
        },
        {
          "indexed": true,
          "internalType": "uint256",
          "name": "ticketPrice",
          "type": "uint256"
        }
      ],
      "name": "EventCreated",
      "type": "event"
    },
    {
      "anonymous": false,
      "inputs": [
        {
          "indexed": true,
          "internalType": "uint256",
          "name": "id",
          "type": "uint256"
        },
        {
          "indexed": false,
          "internalType": "address",
          "name": "subscriber",
          "type": "address"
        }
      ],
      "name": "SubscribedToCreator",
      "type": "event"
    },
    {
      "anonymous": false,
      "inputs": [
        {
          "indexed": true,
          "internalType": "uint256",
          "name": "eventId",
          "type": "uint256"
        },
        {
          "indexed": false,
          "internalType": "address",
          "name": "buyer",
          "type": "address"
        },
        {
          "indexed": true,
          "internalType": "uint256",
          "name": "ticketNFTId",
          "type": "uint256"
        }
      ],
      "name": "TicketPurchased",
      "type": "event"
    },
    {
      "inputs": [
        {
          "internalType": "address",
          "name": "",
          "type": "address"
        }
      ],
      "name": "_addressToCreatorId",
      "outputs": [
        {
          "internalType": "uint256",
          "name": "",
          "type": "uint256"
        }
      ],
      "stateMutability": "view",
      "type": "function"
    },
    {
      "inputs": [
        {
          "internalType": "address",
          "name": "",
          "type": "address"
        }
      ],
      "name": "_userToTicketId",
      "outputs": [
        {
          "internalType": "uint256",
          "name": "",
          "type": "uint256"
        }
      ],
      "stateMutability": "view",
      "type": "function"
    },
    {
      "inputs": [
        {
          "internalType": "string",
          "name": "creatorData",
          "type": "string"
        },
        {
          "internalType": "uint256",
          "name": "subscriptionFee",
          "type": "uint256"
        }
      ],
      "name": "addCreator",
      "outputs": [],
      "stateMutability": "nonpayable",
      "type": "function"
    },
    {
      "inputs": [
        {
          "internalType": "uint256",
          "name": "creatorId",
          "type": "uint256"
        }
      ],
      "name": "getCreator",
      "outputs": [
        {
          "internalType": "string",
          "name": "",
          "type": "string"
        },
        {
          "internalType": "uint256",
          "name": "",
          "type": "uint256"
        },
        {
          "internalType": "address[]",
          "name": "",
          "type": "address[]"
        },
        {
          "internalType": "uint256",
          "name": "",
          "type": "uint256"
        }
      ],
      "stateMutability": "view",
      "type": "function"
    },
    {
      "inputs": [
        {
          "internalType": "uint256",
          "name": "eventId",
          "type": "uint256"
        }
      ],
      "name": "getEvent",
      "outputs": [
        {
          "internalType": "address",
          "name": "",
          "type": "address"
        },
        {
          "internalType": "uint256",
          "name": "",
          "type": "uint256"
        },
        {
          "internalType": "uint256",
          "name": "",
          "type": "uint256"
        },
        {
          "internalType": "uint256",
          "name": "",
          "type": "uint256"
        },
        {
          "internalType": "string",
          "name": "",
          "type": "string"
        },
        {
          "internalType": "address[]",
          "name": "",
          "type": "address[]"
        }
      ],
      "stateMutability": "view",
      "type": "function"
    },
    {
      "inputs": [
        {
          "internalType": "uint256",
          "name": "ticketId",
          "type": "uint256"
        }
      ],
      "name": "getTicket",
      "outputs": [
        {
          "internalType": "address",
          "name": "",
          "type": "address"
        },
        {
          "internalType": "uint256",
          "name": "",
          "type": "uint256"
        },
        {
          "internalType": "uint256",
          "name": "",
          "type": "uint256"
        },
        {
          "internalType": "uint256",
          "name": "",
          "type": "uint256"
        }
      ],
      "stateMutability": "view",
      "type": "function"
    },
    {
      "inputs": [
        {
          "internalType": "address",
          "name": "subscriber",
          "type": "address"
        },
        {
          "internalType": "uint256",
          "name": "creatorId",
          "type": "uint256"
        }
      ],
      "name": "isSubscribedToCreator",
      "outputs": [
        {
          "internalType": "bool",
          "name": "",
          "type": "bool"
        }
      ],
      "stateMutability": "view",
      "type": "function"
    },
    {
      "inputs": [
        {
          "internalType": "uint256",
          "name": "numSeats",
          "type": "uint256"
        },
        {
          "internalType": "string",
          "name": "eventData",
          "type": "string"
        },
        {
          "internalType": "uint256",
          "name": "ticketPrice",
          "type": "uint256"
        },
        {
          "internalType": "uint256",
          "name": "deadline",
          "type": "uint256"
        },
        {
          "internalType": "string",
          "name": "eventName",
          "type": "string"
        }
      ],
      "name": "listEvent",
      "outputs": [],
      "stateMutability": "nonpayable",
      "type": "function"
    },
    {
      "inputs": [
        {
          "internalType": "uint256",
          "name": "eventId",
          "type": "uint256"
        }
      ],
      "name": "purchaseTicket",
      "outputs": [],
      "stateMutability": "payable",
      "type": "function"
    },
    {
      "inputs": [
        {
          "internalType": "uint256",
          "name": "creatorId",
          "type": "uint256"
        }
      ],
      "name": "subscribeToCreator",
      "outputs": [],
      "stateMutability": "payable",
      "type": "function"
    }
  ],
  "bytecode": "0x60806040523480156200001157600080fd5b50604051620030b4380380620030b4833981016040819052620000349162000094565b600380546001600160a01b0319166001600160a01b0392909216919091179055620000c1565b60006001600160a01b0382165b92915050565b62000078816200005a565b81146200008457600080fd5b50565b805162000067816200006d565b600060208284031215620000ab57620000ab600080fd5b6000620000b9848462000087565b949350505050565b612fe380620000d16000396000f3fe608060405260043610620000bf5760003560e01c8063b948348c1162000071578063c193736b1162000054578063c193736b1462000261578063d48e638a1462000292578063dd5f1fb514620002c957600080fd5b8063b948348c1462000225578063bd920b97146200023c57600080fd5b806321ebf5d511620000a657806321ebf5d514620001345780636d1884e014620001685780637dc379fa14620001a157600080fd5b8063127a02c614620000c4578063135b40e514620000eb575b600080fd5b348015620000d157600080fd5b50620000e9620000e336600462000e7e565b620002e0565b005b348015620000f857600080fd5b506200011c6200010a36600462000f07565b60076020526000908152604090205481565b6040516200012b919062000f34565b60405180910390f35b3480156200014157600080fd5b50620001596200015336600462000f44565b620003bd565b6040516200012b919062000f73565b3480156200017557600080fd5b506200018d6200018736600462000f83565b62000565565b6040516200012b9695949392919062001072565b348015620001ae57600080fd5b5062000213620001c036600462000f83565b600090815260086020908152604091829020825160808101845281546001600160a01b03168082526001830154938201849052600283015494820185905260039092015460609091018190529093919291565b6040516200012b9493929190620010e5565b620000e96200023636600462000f83565b62000700565b3480156200024957600080fd5b50620000e96200025b3660046200112b565b620009a1565b3480156200026e57600080fd5b506200011c6200028036600462000f07565b60056020526000908152604090205481565b3480156200029f57600080fd5b50620002b7620002b136600462000f83565b62000ae5565b6040516200012b9493929190620011e9565b620000e9620002da36600462000f83565b62000c41565b620002ef600080546001019055565b60008054604080516080810182528581526020808201869052606082840181905282810186905284865260049091529190932083519293919281906200033690826200132f565b506020828101516001830155604083015180516200035b926002850192019062000cb9565b506060919091015160039091015533600090815260056020526040908190208390555182907fcc7ae948ef8cab396e70738555a2a119dd011ace6409fbcdbb4327f87a3d2ef390620003af90869062000f34565b60405180910390a250505050565b60008181526004602052604080822081516080810190925280548392919082908290620003ea9062001248565b80601f0160208091040260200160405190810160405280929190818152602001828054620004189062001248565b8015620004695780601f106200043d5761010080835404028352916020019162000469565b820191906000526020600020905b8154815290600101906020018083116200044b57829003601f168201915b505050505081526020016001820154815260200160028201805480602002602001604051908101604052809291908181526020018280548015620004d757602002820191906000526020600020905b81546001600160a01b03168152600190910190602001808311620004b8575b50505050508152602001600382015481525050905060005b8160400151518110156200055857846001600160a01b03168260400151828151811062000520576200052062001400565b60200260200101516001600160a01b03160362000543576001925050506200055f565b806200054f816200142c565b915050620004ef565b5060009150505b92915050565b6000818152600660209081526040808320815160e08101835281546001600160a01b039081168252600183015416938101939093526002810154918301919091526003810154606083810191909152600482015460808401526005820180548594859485949384938693929160a0840191620005e19062001248565b80601f01602080910402602001604051908101604052809291908181526020018280546200060f9062001248565b8015620006605780601f10620006345761010080835404028352916020019162000660565b820191906000526020600020905b8154815290600101906020018083116200064257829003601f168201915b5050505050815260200160068201805480602002602001604051908101604052809291908181526020018280548015620006c457602002820191906000526020600020905b81546001600160a01b03168152600190910190602001808311620006a5575b505050919092525050815160408301516060840151608085015160a086015160c090960151939e929d50909b5099509297509550909350505050565b600081815260066020526040902060048101543410156200073e5760405162461bcd60e51b8152600401620007359062001480565b60405180910390fd5b6002810154600682015410620007685760405162461bcd60e51b81526004016200073590620014c7565b80600301544211156200078f5760405162461bcd60e51b815260040162000735906200150e565b60035460018201546040517fa9059cbb0000000000000000000000000000000000000000000000000000000081526001600160a01b039283169263a9059cbb92620007e292911690349060040162001520565b6020604051808303816000875af115801562000802573d6000803e3d6000fd5b505050506040513d601f19601f820116820180604052508101906200082891906200155c565b5080546001600160a01b031662000843600180546001019055565b6040517f08e9bd260000000000000000000000000000000000000000000000000000000081526000906001600160a01b038316906308e9bd26906200088d90339060040162001581565b6020604051808303816000875af1158015620008ad573d6000803e3d6000fd5b505050506040513d601f19601f82011682018060405250810190620008d391906200159e565b9050620008df60015490565b33600090815260076020526040812091909155600881620008ff60015490565b8152602080820192909252604090810160009081208054336001600160a01b03199182168117835560018084018c905560068b0180546002860155600385018a905580549182018155855295909320909401805490941682179093559051919250839187917fdbaaf4c87ce30816c961a81d110622a3227ede77953d4383d514ff88ab2e0fd39162000992919062001581565b60405180910390a35050505050565b3360009081526005602052604081205490819003620009d45760405162461bcd60e51b81526004016200073590620015f8565b600082604051620009e59062000d23565b620009f191906200160a565b604051809103906000f08015801562000a0e573d6000803e3d6000fd5b50905062000a20600280546001019055565b60006006600062000a3060025490565b8152602081019190915260400160002080546001600160a01b0319166001600160a01b03841617815560028101899055600381018690556004810187905590506005810162000a8088826200132f565b506001810180546001600160a01b031916331790558562000aa060025490565b7f103cb41b8f71ac21b5792e993d472e727310a4470d9dde993d890f0634780cf1338b60405162000ad392919062001520565b60405180910390a35050505050505050565b6060600060606000806004600087815260200190815260200160002060405180608001604052908160008201805462000b1e9062001248565b80601f016020809104026020016040519081016040528092919081815260200182805462000b4c9062001248565b801562000b9d5780601f1062000b715761010080835404028352916020019162000b9d565b820191906000526020600020905b81548152906001019060200180831162000b7f57829003601f168201915b50505050508152602001600182015481526020016002820180548060200260200160405190810160405280929190818152602001828054801562000c0b57602002820191906000526020600020905b81546001600160a01b0316815260019091019060200180831162000bec575b50505091835250506003919091015460209182015281519082015160408301516060909301519199909850919650945092505050565b60008181526004602090815260408083206002810180546001810182559085529290932090910180546001600160a01b03191633908117909155905183917f06945f0e43f3df149e954649111f2f1b9ecc4879a4c47366ecfcea7501cd6edd9162000cad919062001581565b60405180910390a25050565b82805482825590600052602060002090810192821562000d11579160200282015b8281111562000d1157825182546001600160a01b0319166001600160a01b0390911617825560209092019160019091019062000cda565b5062000d1f92915062000d31565b5090565b611990806200161e83390190565b5b8082111562000d1f576000815560010162000d32565b634e487b7160e01b600052604160045260246000fd5b601f19601f830116810181811067ffffffffffffffff8211171562000d875762000d8762000d48565b6040525050565b600062000d9a60405190565b905062000da8828262000d5e565b919050565b600067ffffffffffffffff82111562000dca5762000dca62000d48565b601f19601f83011660200192915050565b82818337506000910152565b600062000dfe62000df88462000dad565b62000d8e565b90508281526020810184848401111562000e1b5762000e1b600080fd5b62000e2884828562000ddb565b509392505050565b600082601f83011262000e465762000e46600080fd5b813562000e5884826020860162000de7565b949350505050565b805b811462000e6e57600080fd5b50565b80356200055f8162000e60565b6000806040838503121562000e965762000e96600080fd5b823567ffffffffffffffff81111562000eb25762000eb2600080fd5b62000ec08582860162000e30565b925050602062000ed38582860162000e71565b9150509250929050565b60006001600160a01b0382166200055f565b62000e628162000edd565b80356200055f8162000eef565b60006020828403121562000f1e5762000f1e600080fd5b600062000e58848462000efa565b805b82525050565b602081016200055f828462000f2c565b6000806040838503121562000f5c5762000f5c600080fd5b600062000ec0858562000efa565b80151562000f2e565b602081016200055f828462000f6a565b60006020828403121562000f9a5762000f9a600080fd5b600062000e58848462000e71565b62000f2e8162000edd565b60005b8381101562000fd057818101518382015260200162000fb6565b50506000910152565b600062000fe4825190565b80845260208401935062000ffd81856020860162000fb3565b601f01601f19169290920192915050565b60006200101c838362000fa8565b505060200190565b60006200102f825190565b80845260209384019383018060005b83811015620010675781516200105588826200100e565b9750602083019250506001016200103e565b509495945050505050565b60c0810162001082828962000fa8565b62001091602083018862000f2c565b620010a0604083018762000f2c565b620010af606083018662000f2c565b8181036080830152620010c3818562000fd9565b905081810360a0830152620010d9818462001024565b98975050505050505050565b60808101620010f5828762000fa8565b62001104602083018662000f2c565b62001113604083018562000f2c565b62001122606083018462000f2c565b95945050505050565b600080600080600060a08688031215620011485762001148600080fd5b600062001156888862000e71565b955050602086013567ffffffffffffffff811115620011785762001178600080fd5b620011868882890162000e30565b9450506040620011998882890162000e71565b9350506060620011ac8882890162000e71565b925050608086013567ffffffffffffffff811115620011ce57620011ce600080fd5b620011dc8882890162000e30565b9150509295509295909350565b60808082528101620011fc818762000fd9565b90506200120d602083018662000f2c565b818103604083015262001221818562001024565b905062001122606083018462000f2c565b634e487b7160e01b600052602260045260246000fd5b6002810460018216806200125d57607f821691505b60208210810362001272576200127262001232565b50919050565b60006200055f620012868381565b90565b620012948362001278565b81546008840282811b60001990911b908116901990911617825550505050565b6000620012c381848462001289565b505050565b81811015620012e757620012de600082620012b4565b600101620012c8565b5050565b601f821115620012c3576000818152602090206020601f85010481016020851015620013145750805b620013286020601f860104830182620012c8565b5050505050565b815167ffffffffffffffff8111156200134c576200134c62000d48565b62001358825462001248565b62001365828285620012eb565b6020601f8311600181146200139c5760008415620013835750858201515b600019600886021c1981166002860217865550620013f8565b600085815260208120601f198616915b82811015620013ce5788850151825560209485019460019092019101620013ac565b86831015620013eb5784890151600019601f89166008021c191682555b6001600288020188555050505b505050505050565b634e487b7160e01b600052603260045260246000fd5b634e487b7160e01b600052601160045260246000fd5b6000600019820362001442576200144262001416565b5060010190565b601181526000602082017f4e6f7420656e6f75676820616d6f756e74000000000000000000000000000000815291505b5060200190565b602080825281016200055f8162001449565b600a81526000602082017f46756c6c206576656e74000000000000000000000000000000000000000000008152915062001479565b602080825281016200055f8162001492565b600a81526000602082017f4576656e74206f766572000000000000000000000000000000000000000000008152915062001479565b602080825281016200055f81620014d9565b6040810162001530828562000fa8565b6200153f602083018462000f2c565b9392505050565b80151562000e62565b80516200055f8162001546565b600060208284031215620015735762001573600080fd5b600062000e5884846200154f565b602081016200055f828462000fa8565b80516200055f8162000e60565b600060208284031215620015b557620015b5600080fd5b600062000e58848462001591565b600f81526000602082017f496e76616c69642063726561746f7200000000000000000000000000000000008152915062001479565b602080825281016200055f81620015c3565b602080825281016200153f818462000fd956fe60806040523480156200001157600080fd5b5060405162001990380380620019908339810160408190526200003491620001aa565b60408051808201909152600681526514159153919560d21b602082015281906000620000618382620002ed565b506001620000708282620002ed565b50505050620003bd565b634e487b7160e01b600052604160045260246000fd5b601f19601f83011681018181106001600160401b0382111715620000b857620000b86200007a565b6040525050565b6000620000cb60405190565b9050620000d9828262000090565b919050565b60006001600160401b03821115620000fa57620000fa6200007a565b601f19601f83011660200192915050565b60005b83811015620001285781810151838201526020016200010e565b50506000910152565b6000620001486200014284620000de565b620000bf565b905082815260208101848484011115620001655762000165600080fd5b620001728482856200010b565b509392505050565b600082601f830112620001905762000190600080fd5b8151620001a284826020860162000131565b949350505050565b600060208284031215620001c157620001c1600080fd5b81516001600160401b03811115620001dc57620001dc600080fd5b620001a2848285016200017a565b634e487b7160e01b600052602260045260246000fd5b6002810460018216806200021557607f821691505b6020821081036200022a576200022a620001ea565b50919050565b6000620002416200023e8381565b90565b92915050565b620002528362000230565b81546008840282811b60001990911b908116901990911617825550505050565b60006200028181848462000247565b505050565b81811015620002a5576200029c60008262000272565b60010162000286565b5050565b601f82111562000281576000818152602090206020601f85010481016020851015620002d25750805b620002e66020601f86010483018262000286565b5050505050565b81516001600160401b038111156200030957620003096200007a565b62000315825462000200565b62000322828285620002a9565b6020601f831160018114620003595760008415620003405750858201515b600019600886021c1981166002860217865550620003b5565b600085815260208120601f198616915b828110156200038b578885015182556020948501946001909201910162000369565b86831015620003a85784890151600019601f89166008021c191682555b6001600288020188555050505b505050505050565b6115c380620003cd6000396000f3fe608060405234801561001057600080fd5b50600436106100ea5760003560e01c80636352211e1161008c578063a22cb46511610066578063a22cb465146101d6578063b88d4fde146101e9578063c87b56dd146101fc578063e985e9c51461020f57600080fd5b80636352211e146101a857806370a08231146101bb57806395d89b41146101ce57600080fd5b806308e9bd26116100c857806308e9bd261461014d578063095ea7b31461016d57806323b872dd1461018257806342842e0e1461019557600080fd5b806301ffc9a7146100ef57806306fdde0314610118578063081812fc1461012d575b600080fd5b6101026100fd366004610cec565b61024b565b60405161010f9190610d17565b60405180910390f35b6101206102e8565b60405161010f9190610d7b565b61014061013b366004610d9d565b61037a565b60405161010f9190610dd8565b61016061015b366004610dfa565b6103a1565b60405161010f9190610e21565b61018061017b366004610e2f565b6103c8565b005b610180610190366004610e6c565b610474565b6101806101a3366004610e6c565b6104a5565b6101406101b6366004610d9d565b6104c0565b6101606101c9366004610dfa565b6104f5565b610120610539565b6101806101e4366004610ecf565b610548565b6101806101f7366004610ff5565b610557565b61012061020a366004610d9d565b61058f565b61010261021d366004611074565b6001600160a01b03918216600090815260056020908152604080832093909416825291909152205460ff1690565b60006001600160e01b031982167f80ac58cd0000000000000000000000000000000000000000000000000000000014806102ae57506001600160e01b031982167f5b5e139f00000000000000000000000000000000000000000000000000000000145b806102e257507f01ffc9a7000000000000000000000000000000000000000000000000000000006001600160e01b03198316145b92915050565b6060600080546102f7906110bd565b80601f0160208091040260200160405190810160405280929190818152602001828054610323906110bd565b80156103705780601f1061034557610100808354040283529160200191610370565b820191906000526020600020905b81548152906001019060200180831161035357829003601f168201915b5050505050905090565b600061038582610603565b506000908152600460205260409020546001600160a01b031690565b60006103b1600680546001019055565b60006103bc60065490565b90506102e2838261063a565b60006103d3826104c0565b9050806001600160a01b0316836001600160a01b03160361040f5760405162461bcd60e51b815260040161040690611146565b60405180910390fd5b336001600160a01b038216148061044957506001600160a01b038116600090815260056020908152604080832033845290915290205460ff165b6104655760405162461bcd60e51b8152600401610406906111b0565b61046f8383610742565b505050565b61047e33826107bd565b61049a5760405162461bcd60e51b81526004016104069061121a565b61046f83838361083c565b61046f83838360405180602001604052806000815250610557565b6000818152600260205260408120546001600160a01b0316806102e25760405162461bcd60e51b815260040161040690611261565b60006001600160a01b03821661051d5760405162461bcd60e51b8152600401610406906112cb565b506001600160a01b031660009081526003602052604090205490565b6060600180546102f7906110bd565b610553338383610971565b5050565b61056133836107bd565b61057d5760405162461bcd60e51b81526004016104069061121a565b61058984848484610a13565b50505050565b606061059a82610603565b60006105b160408051602081019091526000815290565b905060008151116105d157604051806020016040528060008152506105fc565b806105db84610a46565b6040516020016105ec9291906112fd565b6040516020818303038152906040525b9392505050565b6000818152600260205260409020546001600160a01b03166106375760405162461bcd60e51b815260040161040690611261565b50565b6001600160a01b0382166106605760405162461bcd60e51b815260040161040690611347565b6000818152600260205260409020546001600160a01b0316156106955760405162461bcd60e51b81526004016104069061138b565b6000818152600260205260409020546001600160a01b0316156106ca5760405162461bcd60e51b81526004016104069061138b565b6001600160a01b0382166000818152600360209081526040808320805460010190558483526002909152808220805473ffffffffffffffffffffffffffffffffffffffff19168417905551839291907fddf252ad1be2c89b69c2b068fc378daa952ba7f163c4a11628f55a4df523b3ef908290a45050565b6000818152600460205260409020805473ffffffffffffffffffffffffffffffffffffffff19166001600160a01b0384169081179091558190610784826104c0565b6001600160a01b03167f8c5be1e5ebec7d5bd14f71427d1e84f3dd0314c0f7b2291e5b200ac8c7c3b92560405160405180910390a45050565b6000806107c9836104c0565b9050806001600160a01b0316846001600160a01b0316148061081057506001600160a01b0380821660009081526005602090815260408083209388168352929052205460ff165b806108345750836001600160a01b03166108298461037a565b6001600160a01b0316145b949350505050565b826001600160a01b031661084f826104c0565b6001600160a01b0316146108755760405162461bcd60e51b8152600401610406906113f5565b6001600160a01b03821661089b5760405162461bcd60e51b81526004016104069061145f565b826001600160a01b03166108ae826104c0565b6001600160a01b0316146108d45760405162461bcd60e51b8152600401610406906113f5565b6000818152600460209081526040808320805473ffffffffffffffffffffffffffffffffffffffff199081169091556001600160a01b0387811680865260038552838620805460001901905590871680865283862080546001019055868652600290945282852080549092168417909155905184937fddf252ad1be2c89b69c2b068fc378daa952ba7f163c4a11628f55a4df523b3ef91a4505050565b816001600160a01b0316836001600160a01b0316036109a25760405162461bcd60e51b8152600401610406906114a3565b6001600160a01b0383811660008181526005602090815260408083209487168084529490915290819020805460ff1916851515179055517f17307eab39ab6107e8899845ad3d59bd9653f200f220920489ca2b5937696c3190610a06908590610d17565b60405180910390a3505050565b610a1e84848461083c565b610a2a84848484610ae7565b6105895760405162461bcd60e51b81526004016104069061150d565b60606000610a5383610be8565b600101905060008167ffffffffffffffff811115610a7357610a73610f02565b6040519080825280601f01601f191660200182016040528015610a9d576020820181803683370190505b5090508181016020015b600019017f3031323334353637383961626364656600000000000000000000000000000000600a86061a8153600a8504945084610aa7575b509392505050565b60006001600160a01b0384163b15610bdd57604051630a85bd0160e11b81526001600160a01b0385169063150b7a0290610b2b90339089908890889060040161151d565b6020604051808303816000875af1925050508015610b66575060408051601f3d908101601f19168201909252610b639181019061156c565b60015b610bc3573d808015610b94576040519150601f19603f3d011682016040523d82523d6000602084013e610b99565b606091505b508051600003610bbb5760405162461bcd60e51b81526004016104069061150d565b805181602001fd5b6001600160e01b031916630a85bd0160e11b149050610834565b506001949350505050565b6000807a184f03e93ff9f4daa797ed6e38ed64bf6a1f0100000000000000008310610c31577a184f03e93ff9f4daa797ed6e38ed64bf6a1f010000000000000000830492506040015b6d04ee2d6d415b85acef81000000008310610c5d576d04ee2d6d415b85acef8100000000830492506020015b662386f26fc100008310610c7b57662386f26fc10000830492506010015b6305f5e1008310610c93576305f5e100830492506008015b6127108310610ca757612710830492506004015b60648310610cb9576064830492506002015b600a83106102e25760010192915050565b6001600160e01b031981165b811461063757600080fd5b80356102e281610cca565b600060208284031215610d0157610d01600080fd5b60006108348484610ce1565b8015155b82525050565b602081016102e28284610d0d565b60005b83811015610d40578181015183820152602001610d28565b50506000910152565b6000610d53825190565b808452602084019350610d6a818560208601610d25565b601f01601f19169290920192915050565b602080825281016105fc8184610d49565b80610cd6565b80356102e281610d8c565b600060208284031215610db257610db2600080fd5b60006108348484610d92565b60006001600160a01b0382166102e2565b610d1181610dbe565b602081016102e28284610dcf565b610cd681610dbe565b80356102e281610de6565b600060208284031215610e0f57610e0f600080fd5b60006108348484610def565b80610d11565b602081016102e28284610e1b565b60008060408385031215610e4557610e45600080fd5b6000610e518585610def565b9250506020610e6285828601610d92565b9150509250929050565b600080600060608486031215610e8457610e84600080fd5b6000610e908686610def565b9350506020610ea186828701610def565b9250506040610eb286828701610d92565b9150509250925092565b801515610cd6565b80356102e281610ebc565b60008060408385031215610ee557610ee5600080fd5b6000610ef18585610def565b9250506020610e6285828601610ec4565b634e487b7160e01b600052604160045260246000fd5b601f19601f830116810181811067ffffffffffffffff82111715610f3e57610f3e610f02565b6040525050565b6000610f5060405190565b9050610f5c8282610f18565b919050565b600067ffffffffffffffff821115610f7b57610f7b610f02565b601f19601f83011660200192915050565b82818337506000910152565b6000610fab610fa684610f61565b610f45565b905082815260208101848484011115610fc657610fc6600080fd5b610adf848285610f8c565b600082601f830112610fe557610fe5600080fd5b8135610834848260208601610f98565b6000806000806080858703121561100e5761100e600080fd5b600061101a8787610def565b945050602061102b87828801610def565b935050604061103c87828801610d92565b925050606085013567ffffffffffffffff81111561105c5761105c600080fd5b61106887828801610fd1565b91505092959194509250565b6000806040838503121561108a5761108a600080fd5b60006110968585610def565b9250506020610e6285828601610def565b634e487b7160e01b600052602260045260246000fd5b6002810460018216806110d157607f821691505b6020821081036110e3576110e36110a7565b50919050565b602181526000602082017f4552433732313a20617070726f76616c20746f2063757272656e74206f776e6581527f7200000000000000000000000000000000000000000000000000000000000000602082015291505b5060400190565b602080825281016102e2816110e9565b603d81526000602082017f4552433732313a20617070726f76652063616c6c6572206973206e6f7420746f81527f6b656e206f776e6572206f7220617070726f76656420666f7220616c6c0000006020820152915061113f565b602080825281016102e281611156565b602d81526000602082017f4552433732313a2063616c6c6572206973206e6f7420746f6b656e206f776e6581527f72206f7220617070726f766564000000000000000000000000000000000000006020820152915061113f565b602080825281016102e2816111c0565b601881526000602082017f4552433732313a20696e76616c696420746f6b656e2049440000000000000000815291505b5060200190565b602080825281016102e28161122a565b602981526000602082017f4552433732313a2061646472657373207a65726f206973206e6f74206120766181527f6c6964206f776e657200000000000000000000000000000000000000000000006020820152915061113f565b602080825281016102e281611271565b60006112e5825190565b6112f3818560208601610d25565b9290920192915050565b600061130982856112db565b915061083482846112db565b60208082527f4552433732313a206d696e7420746f20746865207a65726f20616464726573739101908152600061125a565b602080825281016102e281611315565b601c81526000602082017f4552433732313a20746f6b656e20616c7265616479206d696e746564000000008152915061125a565b602080825281016102e281611357565b602581526000602082017f4552433732313a207472616e736665722066726f6d20696e636f72726563742081527f6f776e65720000000000000000000000000000000000000000000000000000006020820152915061113f565b602080825281016102e28161139b565b602481526000602082017f4552433732313a207472616e7366657220746f20746865207a65726f2061646481527f72657373000000000000000000000000000000000000000000000000000000006020820152915061113f565b602080825281016102e281611405565b601981526000602082017f4552433732313a20617070726f766520746f2063616c6c6572000000000000008152915061125a565b602080825281016102e28161146f565b603281526000602082017f4552433732313a207472616e7366657220746f206e6f6e20455243373231526581527f63656976657220696d706c656d656e74657200000000000000000000000000006020820152915061113f565b602080825281016102e2816114b3565b6080810161152b8287610dcf565b6115386020830186610dcf565b6115456040830185610e1b565b81810360608301526115578184610d49565b9695505050505050565b80516102e281610cca565b60006020828403121561158157611581600080fd5b6000610834848461156156fea26469706673582212201e2c88d70afceb950bfbedaafc9c0ecfecd2cb3ce5db3d36a68f71c9c4dc81bd64736f6c63430008110033a2646970667358221220fde28cbd95f9ba859bf9fb07405ffa9d0b162417f58ecb74fa522a91775da88864736f6c63430008110033",
  "linkReferences": {},
  "deployedLinkReferences": {}
}