{
  "_format": "hh-sol-artifact-1",
  "contractName": "SubscriptionContract",
  "sourceName": "contracts/basic-solidity-examples/SubscriptionContract.sol",
  "abi": [
    {
      "inputs": [
        {
          "internalType": "address",
          "name": "_tokenAddress",
          "type": "address"
        }
      ],
      "stateMutability": "nonpayable",
      "type": "constructor"
    },
    {
      "anonymous": false,
      "inputs": [
        {
          "indexed": true,
          "internalType": "address",
          "name": "previousOwner",
          "type": "address"
        },
        {
          "indexed": true,
          "internalType": "address",
          "name": "newOwner",
          "type": "address"
        }
      ],
      "name": "OwnershipTransferred",
      "type": "event"
    },
    {
      "anonymous": false,
      "inputs": [
        {
          "indexed": false,
          "internalType": "address",
          "name": "from",
          "type": "address"
        },
        {
          "indexed": false,
          "internalType": "address",
          "name": "to",
          "type": "address"
        },
        {
          "indexed": false,
          "internalType": "uint256",
          "name": "amount",
          "type": "uint256"
        },
        {
          "indexed": false,
          "internalType": "uint256",
          "name": "planId",
          "type": "uint256"
        },
        {
          "indexed": false,
          "internalType": "uint256",
          "name": "date",
          "type": "uint256"
        }
      ],
      "name": "PaymentSent",
      "type": "event"
    },
    {
      "anonymous": false,
      "inputs": [
        {
          "indexed": false,
          "internalType": "address",
          "name": "artist",
          "type": "address"
        },
        {
          "indexed": false,
          "internalType": "string",
          "name": "name",
          "type": "string"
        },
        {
          "indexed": false,
          "internalType": "uint256",
          "name": "planId",
          "type": "uint256"
        },
        {
          "indexed": false,
          "internalType": "uint256",
          "name": "date",
          "type": "uint256"
        }
      ],
      "name": "PlanCreated",
      "type": "event"
    },
    {
      "anonymous": false,
      "inputs": [
        {
          "indexed": false,
          "internalType": "address",
          "name": "subscriber",
          "type": "address"
        },
        {
          "indexed": false,
          "internalType": "uint256",
          "name": "planId",
          "type": "uint256"
        },
        {
          "indexed": false,
          "internalType": "uint256",
          "name": "date",
          "type": "uint256"
        },
        {
          "indexed": false,
          "internalType": "bool",
          "name": "isSubscribed",
          "type": "bool"
        }
      ],
      "name": "SubscriptionCancelled",
      "type": "event"
    },
    {
      "anonymous": false,
      "inputs": [
        {
          "indexed": false,
          "internalType": "address",
          "name": "subscriber",
          "type": "address"
        },
        {
          "indexed": false,
          "internalType": "uint256",
          "name": "planId",
          "type": "uint256"
        },
        {
          "indexed": false,
          "internalType": "uint256",
          "name": "date",
          "type": "uint256"
        },
        {
          "indexed": false,
          "internalType": "bool",
          "name": "isSubscribed",
          "type": "bool"
        }
      ],
      "name": "SubscriptionCreated",
      "type": "event"
    },
    {
      "inputs": [
        {
          "internalType": "uint256",
          "name": "planId",
          "type": "uint256"
        }
      ],
      "name": "cancel",
      "outputs": [],
      "stateMutability": "nonpayable",
      "type": "function"
    },
    {
      "inputs": [
        {
          "internalType": "string",
          "name": "_name",
          "type": "string"
        },
        {
          "internalType": "uint256",
          "name": "amount",
          "type": "uint256"
        }
      ],
      "name": "createPlan",
      "outputs": [],
      "stateMutability": "nonpayable",
      "type": "function"
    },
    {
      "inputs": [],
      "name": "getMyPlans",
      "outputs": [
        {
          "components": [
            {
              "internalType": "uint256",
              "name": "planId",
              "type": "uint256"
            },
            {
              "internalType": "address",
              "name": "artist",
              "type": "address"
            },
            {
              "internalType": "string",
              "name": "name",
              "type": "string"
            },
            {
              "internalType": "uint256",
              "name": "amount",
              "type": "uint256"
            },
            {
              "internalType": "uint256",
              "name": "frequency",
              "type": "uint256"
            },
            {
              "internalType": "address",
              "name": "nftAddress",
              "type": "address"
            }
          ],
          "internalType": "struct SubscriptionContract.Plan[]",
          "name": "",
          "type": "tuple[]"
        }
      ],
      "stateMutability": "view",
      "type": "function"
    },
    {
      "inputs": [
        {
          "internalType": "address",
          "name": "artistAddress",
          "type": "address"
        },
        {
          "internalType": "address",
          "name": "_address",
          "type": "address"
        },
        {
          "internalType": "uint256",
          "name": "planId",
          "type": "uint256"
        }
      ],
      "name": "isSubscriber",
      "outputs": [
        {
          "internalType": "bool",
          "name": "",
          "type": "bool"
        }
      ],
      "stateMutability": "view",
      "type": "function"
    },
    {
      "inputs": [],
      "name": "nextPlanId",
      "outputs": [
        {
          "internalType": "uint256",
          "name": "",
          "type": "uint256"
        }
      ],
      "stateMutability": "view",
      "type": "function"
    },
    {
      "inputs": [],
      "name": "owner",
      "outputs": [
        {
          "internalType": "address",
          "name": "",
          "type": "address"
        }
      ],
      "stateMutability": "view",
      "type": "function"
    },
    {
      "inputs": [
        {
          "internalType": "address",
          "name": "subscriber",
          "type": "address"
        },
        {
          "internalType": "uint256",
          "name": "planId",
          "type": "uint256"
        }
      ],
      "name": "pay",
      "outputs": [],
      "stateMutability": "payable",
      "type": "function"
    },
    {
      "inputs": [
        {
          "internalType": "uint256",
          "name": "",
          "type": "uint256"
        }
      ],
      "name": "plans",
      "outputs": [
        {
          "internalType": "uint256",
          "name": "planId",
          "type": "uint256"
        },
        {
          "internalType": "address",
          "name": "artist",
          "type": "address"
        },
        {
          "internalType": "string",
          "name": "name",
          "type": "string"
        },
        {
          "internalType": "uint256",
          "name": "amount",
          "type": "uint256"
        },
        {
          "internalType": "uint256",
          "name": "frequency",
          "type": "uint256"
        },
        {
          "internalType": "address",
          "name": "nftAddress",
          "type": "address"
        }
      ],
      "stateMutability": "view",
      "type": "function"
    },
    {
      "inputs": [],
      "name": "renounceOwnership",
      "outputs": [],
      "stateMutability": "nonpayable",
      "type": "function"
    },
    {
      "inputs": [
        {
          "internalType": "uint256",
          "name": "planId",
          "type": "uint256"
        }
      ],
      "name": "subscribe",
      "outputs": [],
      "stateMutability": "payable",
      "type": "function"
    },
    {
      "inputs": [
        {
          "internalType": "address",
          "name": "",
          "type": "address"
        },
        {
          "internalType": "address",
          "name": "",
          "type": "address"
        },
        {
          "internalType": "uint256",
          "name": "",
          "type": "uint256"
        }
      ],
      "name": "subscriptions",
      "outputs": [
        {
          "internalType": "address",
          "name": "subscriber",
          "type": "address"
        },
        {
          "internalType": "uint256",
          "name": "start",
          "type": "uint256"
        },
        {
          "internalType": "uint256",
          "name": "nextPayment",
          "type": "uint256"
        },
        {
          "internalType": "bool",
          "name": "isSubscribed",
          "type": "bool"
        }
      ],
      "stateMutability": "view",
      "type": "function"
    },
    {
      "inputs": [
        {
          "internalType": "address",
          "name": "newOwner",
          "type": "address"
        }
      ],
      "name": "transferOwnership",
      "outputs": [],
      "stateMutability": "nonpayable",
      "type": "function"
    }
  ],
  "bytecode": "0x6080604052600180553480156200001557600080fd5b5060405162003507380380620035078339810160408190526200003891620000f3565b620000433362000069565b600280546001600160a01b0319166001600160a01b039290921691909117905562000120565b600080546001600160a01b038381166001600160a01b0319831681178455604051919092169283917f8be0079c531659141344cd1fd0a4f28419497f9722a3daafe3b4186f6b6457e09190a35050565b60006001600160a01b0382165b92915050565b620000d781620000b9565b8114620000e357600080fd5b50565b8051620000c681620000cc565b6000602082840312156200010a576200010a600080fd5b6000620001188484620000e6565b949350505050565b6133d780620001306000396000f3fe608060405260043610620000d75760003560e01c80638da5cb5b116200007d578063c40768761162000054578063c40768761462000293578063d498fd4e14620002aa578063f2fde38b14620002d157600080fd5b80638da5cb5b14620001bb578063affb21d014620001e4578063b1620616146200025a57600080fd5b80635f8d26b211620000b25780635f8d26b2146200013f578063658ceaec146200016f578063715018a614620001a357600080fd5b80630f574ba714620000dc57806340e58ee514620000f55780634e09bf46146200011a575b600080fd5b620000f3620000ed36600462000edf565b620002f6565b005b3480156200010257600080fd5b50620000f36200011436600462000edf565b620005c6565b3480156200012757600080fd5b50620000f3620001393660046200101c565b620006b4565b3480156200014c57600080fd5b506200015760015481565b60405162000166919062001083565b60405180910390f35b3480156200017c57600080fd5b50620001946200018e366004620010bd565b620007ef565b6040516200016691906200111e565b348015620001b057600080fd5b50620000f3620008cf565b348015620001c857600080fd5b506000546001600160a01b031660405162000166919062001139565b348015620001f157600080fd5b506200024862000203366004620010bd565b600460209081526000938452604080852082529284528284209052825290208054600182015460028301546003909301546001600160a01b0390921692909160ff1684565b60405162000166949392919062001149565b3480156200026757600080fd5b506200027f6200027936600462000edf565b620008e7565b6040516200016696959493929190620011ea565b620000f3620002a436600462001257565b620009c1565b348015620002b757600080fd5b50620002c262000b40565b6040516200016691906200137d565b348015620002de57600080fd5b50620000f3620002f036600462001390565b62000df2565b600081815260036020526040902060058101546001600160a01b03166200033a5760405162461bcd60e51b81526004016200033190620013ec565b60405180910390fd5b60018101546001600160a01b0316620003675760405162461bcd60e51b8152600401620003319062001433565b6002546001820154600383015460405163a9059cbb60e01b81526001600160a01b039384169363a9059cbb93620003a49391169160040162001445565b6020604051808303816000875af1158015620003c4573d6000803e3d6000fd5b505050506040513d601f19601f82011682018060405250810190620003ea91906200147a565b50600181015460038201546040517f577462848cc2ec95e5ef95bf0b154b97340221cd1002ea0511a3877a7f20fb8c92620004379233926001600160a01b0390921691879042906200149f565b60405180910390a160058101546040517f70247acb0000000000000000000000000000000000000000000000000000000081526001600160a01b039091169081906370247acb906200048e90339060040162001139565b6020604051808303816000875af1158015620004ae573d6000803e3d6000fd5b505050506040513d601f19601f82011682018060405250810190620004d4919062001502565b506040518060800160405280336001600160a01b031681526020014281526020018360040154426200050791906200153d565b815260016020918201819052848101546001600160a01b039081166000908152600484526040808220338084529086528183208a8452865291819020865181546001600160a01b031916941693909317835593850151828401558484015160028301556060909401516003909101805460ff191691151591909117905590517f4ee771faba56615d06372cb080afd629cfcacaf98c6dcde9c918d742824dc97992620005b99290918791429162001149565b60405180910390a1505050565b600081815260036020908152604080832060018101546001600160a01b03908116855260048452828520338652845282852086865290935292208054909116620006245760405162461bcd60e51b8152600401620003319062001588565b6001808301546001600160a01b031660009081526004602090815260408083203380855290835281842088855290925280832080546001600160a01b0319168155938401839055600284018390556003909301805460ff1916905591517f2f736aa2000a98229edce283afb3fe80e32ac3071a77038329576906e638ac4d92620005b99290918791429162001149565b60008111620006d75760405162461bcd60e51b81526004016200033190620015cf565b600082604051620006e89062000eb0565b620006f49190620015e1565b604051809103906000f08015801562000711573d6000803e3d6000fd5b506040805160c081018252600180548083523360208085019182528486018a8152606086018a905262278d0060808701526001600160a01b0388811660a0880152600094855260039092529590922084518155905192810180546001600160a01b031916939092169290921790559151929350916002820190620007969082620016f1565b50606082015160038201556080820151600482015560a090910151600590910180546001600160a01b0319166001600160a01b0390921691909117905560018054906000620007e583620017c2565b9190505550505050565b6001600160a01b03838116600090815260046020908152604080832086851684528252808320858452909152812054909116620008405760405162461bcd60e51b8152600401620003319062001814565b6001600160a01b0380851660009081526004602090815260408083209387168352928152828220858352905220600201544210620008925760405162461bcd60e51b8152600401620003319062001883565b506001600160a01b03808416600090815260046020908152604080832093861683529281528282208483529052206003015460ff165b9392505050565b620008d962000e33565b620008e5600062000e60565b565b60036020526000908152604090208054600182015460028301805492936001600160a01b03909216926200091b906200160a565b80601f016020809104026020016040519081016040528092919081815260200182805462000949906200160a565b80156200099a5780601f106200096e576101008083540402835291602001916200099a565b820191906000526020600020905b8154815290600101906020018083116200097c57829003601f168201915b5050505060038301546004840154600590940154929390929091506001600160a01b031686565b600081815260036020908152604080832060018101546001600160a01b03908116855260048452828520878216865284528285208686529093529220805490911662000a215760405162461bcd60e51b81526004016200033190620018f0565b8060020154421162000a475760405162461bcd60e51b8152600401620003319062001937565b6002546001830154600384015460405163a9059cbb60e01b81526001600160a01b039384169363a9059cbb9362000a849391169160040162001445565b6020604051808303816000875af115801562000aa4573d6000803e3d6000fd5b505050506040513d601f19601f8201168201806040525081019062000aca91906200147a565b50600182015460038301546040517f577462848cc2ec95e5ef95bf0b154b97340221cd1002ea0511a3877a7f20fb8c9262000b179288926001600160a01b0390921691889042906200149f565b60405180910390a18160040154816002015462000b3591906200153d565b600290910155505050565b60015460609060008080805b8481101562000baf57336003600062000b678460016200153d565b81526020810191909152604001600020600101546001600160a01b03160362000b9a5762000b976001856200153d565b93505b8062000ba681620017c2565b91505062000b4c565b5060008367ffffffffffffffff81111562000bce5762000bce62000f0c565b60405190808252806020026020018201604052801562000c4d57816020015b62000c396040518060c001604052806000815260200160006001600160a01b0316815260200160608152602001600081526020016000815260200160006001600160a01b031681525090565b81526020019060019003908162000bed5790505b50905060005b8581101562000de857336003600062000c6e8460016200153d565b81526020810191909152604001600020600101546001600160a01b03160362000dd35762000c9e8160016200153d565b600081815260036020908152604091829020825160c0810184528154815260018201546001600160a01b031692810192909252600281018054949750909391928492908401919062000cf0906200160a565b80601f016020809104026020016040519081016040528092919081815260200182805462000d1e906200160a565b801562000d6f5780601f1062000d435761010080835404028352916020019162000d6f565b820191906000526020600020905b81548152906001019060200180831162000d5157829003601f168201915b505050918352505060038201546020820152600482015460408201526005909101546001600160a01b0316606090910152835184908790811062000db75762000db762001949565b602090810291909101015262000dcf6001866200153d565b9450505b8062000ddf81620017c2565b91505062000c53565b5095945050505050565b62000dfc62000e33565b6001600160a01b03811662000e255760405162461bcd60e51b81526004016200033190620019ba565b62000e308162000e60565b50565b6000546001600160a01b03163314620008e55760405162461bcd60e51b81526004016200033190620019ff565b600080546001600160a01b038381166001600160a01b0319831681178455604051919092169283917f8be0079c531659141344cd1fd0a4f28419497f9722a3daafe3b4186f6b6457e09190a35050565b6119908062001a1283390190565b805b811462000e3057600080fd5b803562000ed98162000ebe565b92915050565b60006020828403121562000ef65762000ef6600080fd5b600062000f04848462000ecc565b949350505050565b634e487b7160e01b600052604160045260246000fd5b601f19601f830116810181811067ffffffffffffffff8211171562000f4b5762000f4b62000f0c565b6040525050565b600062000f5e60405190565b905062000f6c828262000f22565b919050565b600067ffffffffffffffff82111562000f8e5762000f8e62000f0c565b601f19601f83011660200192915050565b82818337506000910152565b600062000fc262000fbc8462000f71565b62000f52565b90508281526020810184848401111562000fdf5762000fdf600080fd5b62000fec84828562000f9f565b509392505050565b600082601f8301126200100a576200100a600080fd5b813562000f0484826020860162000fab565b60008060408385031215620010345762001034600080fd5b823567ffffffffffffffff811115620010505762001050600080fd5b6200105e8582860162000ff4565b9250506020620010718582860162000ecc565b9150509250929050565b805b82525050565b6020810162000ed982846200107b565b60006001600160a01b03821662000ed9565b62000ec08162001093565b803562000ed981620010a5565b600080600060608486031215620010d757620010d7600080fd5b6000620010e58686620010b0565b9350506020620010f886828701620010b0565b92505060406200110b8682870162000ecc565b9150509250925092565b8015156200107d565b6020810162000ed9828462001115565b6200107d8162001093565b6020810162000ed982846200112e565b608081016200115982876200112e565b6200116860208301866200107b565b6200117760408301856200107b565b62001186606083018462001115565b95945050505050565b60005b83811015620011ac57818101518382015260200162001192565b50506000910152565b6000620011c0825190565b808452602084019350620011d98185602086016200118f565b601f01601f19169290920192915050565b60c08101620011fa82896200107b565b6200120960208301886200112e565b81810360408301526200121d8187620011b5565b90506200122e60608301866200107b565b6200123d60808301856200107b565b6200124c60a08301846200112e565b979650505050505050565b600080604083850312156200126f576200126f600080fd5b60006200105e8585620010b0565b805160009060c08401906200129385826200107b565b506020830151620012a860208601826200112e565b5060408301518482036040860152620012c28282620011b5565b9150506060830151620012d960608601826200107b565b506080830151620012ee60808601826200107b565b5060a083015162000fec60a08601826200112e565b6000620008c883836200127d565b60006200131c825190565b80845260208401935083602082028501620013378560200190565b8060005b8581101562001370578484038952815162001357858262001303565b94506020830160209a909a01999250506001016200133b565b5091979650505050505050565b60208082528101620008c8818462001311565b600060208284031215620013a757620013a7600080fd5b600062000f048484620010b0565b600f81526000602082017f496e76616c69642063726561746f720000000000000000000000000000000000815291505b5060200190565b6020808252810162000ed981620013b5565b601881526000602082017f7468697320706c616e20646f6573206e6f74206578697374000000000000000081529150620013e5565b6020808252810162000ed981620013fe565b604081016200145582856200112e565b620008c860208301846200107b565b80151562000ec0565b805162000ed98162001464565b600060208284031215620014915762001491600080fd5b600062000f0484846200146d565b60a08101620014af82886200112e565b620014be60208301876200112e565b620014cd60408301866200107b565b620014dc60608301856200107b565b620014eb60808301846200107b565b9695505050505050565b805162000ed98162000ebe565b600060208284031215620015195762001519600080fd5b600062000f048484620014f5565b634e487b7160e01b600052601160045260246000fd5b8082018082111562000ed95762000ed962001527565b601f81526000602082017f737562736372697074696f6e706c616e20646f6573206e6f742065786973740081529150620013e5565b6020808252810162000ed98162001553565b601681526000602082017f616d6f756e74206e6565647320746f206265203e20300000000000000000000081529150620013e5565b6020808252810162000ed9816200159a565b60208082528101620008c88184620011b5565b634e487b7160e01b600052602260045260246000fd5b6002810460018216806200161f57607f821691505b602082108103620016345762001634620015f4565b50919050565b600062000ed9620016488381565b90565b62001656836200163a565b81546008840282811b60001990911b908116901990911617825550505050565b6000620016858184846200164b565b505050565b81811015620016a957620016a060008262001676565b6001016200168a565b5050565b601f82111562001685576000818152602090206020601f85010481016020851015620016d65750805b620016ea6020601f8601048301826200168a565b5050505050565b815167ffffffffffffffff8111156200170e576200170e62000f0c565b6200171a82546200160a565b62001727828285620016ad565b6020601f8311600181146200175e5760008415620017455750858201515b600019600886021c1981166002860217865550620017ba565b600085815260208120601f198616915b828110156200179057888501518255602094850194600190920191016200176e565b86831015620017ad5784890151600019601f89166008021c191682555b6001600288020188555050505b505050505050565b60006000198203620017d857620017d862001527565b5060010190565b601b81526000602082017f596f75206e65656420746f20737562736372696265206669727374000000000081529150620013e5565b6020808252810162000ed981620017df565b602f81526000602082017f596f75206e65656420746f2072656e657720796f75722073756273637269707481527f696f6e20746f20636f6e74696e75650000000000000000000000000000000000602082015291505b5060400190565b6020808252810162000ed98162001826565b603f81526000602082017f737562736372697074696f6e20706c616e20646f6573206e6f7420657869737481527f206f7220796f752068617665206e6f7420796574207375627363726962656400602082015291506200187c565b6020808252810162000ed98162001895565b600b81526000602082017f6e6f74206475652079657400000000000000000000000000000000000000000081529150620013e5565b6020808252810162000ed98162001902565b634e487b7160e01b600052603260045260246000fd5b602681526000602082017f4f776e61626c653a206e6577206f776e657220697320746865207a65726f206181527f6464726573730000000000000000000000000000000000000000000000000000602082015291506200187c565b6020808252810162000ed9816200195f565b60208082527f4f776e61626c653a2063616c6c6572206973206e6f7420746865206f776e657291019081526000620013e5565b6020808252810162000ed981620019cc56fe60806040523480156200001157600080fd5b5060405162001990380380620019908339810160408190526200003491620001aa565b60408051808201909152600681526514159153919560d21b602082015281906000620000618382620002ed565b506001620000708282620002ed565b50505050620003bd565b634e487b7160e01b600052604160045260246000fd5b601f19601f83011681018181106001600160401b0382111715620000b857620000b86200007a565b6040525050565b6000620000cb60405190565b9050620000d9828262000090565b919050565b60006001600160401b03821115620000fa57620000fa6200007a565b601f19601f83011660200192915050565b60005b83811015620001285781810151838201526020016200010e565b50506000910152565b6000620001486200014284620000de565b620000bf565b905082815260208101848484011115620001655762000165600080fd5b620001728482856200010b565b509392505050565b600082601f830112620001905762000190600080fd5b8151620001a284826020860162000131565b949350505050565b600060208284031215620001c157620001c1600080fd5b81516001600160401b03811115620001dc57620001dc600080fd5b620001a2848285016200017a565b634e487b7160e01b600052602260045260246000fd5b6002810460018216806200021557607f821691505b6020821081036200022a576200022a620001ea565b50919050565b6000620002416200023e8381565b90565b92915050565b620002528362000230565b81546008840282811b60001990911b908116901990911617825550505050565b60006200028181848462000247565b505050565b81811015620002a5576200029c60008262000272565b60010162000286565b5050565b601f82111562000281576000818152602090206020601f85010481016020851015620002d25750805b620002e66020601f86010483018262000286565b5050505050565b81516001600160401b038111156200030957620003096200007a565b62000315825462000200565b62000322828285620002a9565b6020601f831160018114620003595760008415620003405750858201515b600019600886021c1981166002860217865550620003b5565b600085815260208120601f198616915b828110156200038b578885015182556020948501946001909201910162000369565b86831015620003a85784890151600019601f89166008021c191682555b6001600288020188555050505b505050505050565b6115c380620003cd6000396000f3fe608060405234801561001057600080fd5b50600436106100ea5760003560e01c806370247acb1161008c578063a22cb46511610066578063a22cb465146101d6578063b88d4fde146101e9578063c87b56dd146101fc578063e985e9c51461020f57600080fd5b806370247acb1461019b57806370a08231146101bb57806395d89b41146101ce57600080fd5b8063095ea7b3116100c8578063095ea7b31461014d57806323b872dd1461016257806342842e0e146101755780636352211e1461018857600080fd5b806301ffc9a7146100ef57806306fdde0314610118578063081812fc1461012d575b600080fd5b6101026100fd366004610cec565b61024b565b60405161010f9190610d17565b60405180910390f35b6101206102e8565b60405161010f9190610d7b565b61014061013b366004610d9d565b61037a565b60405161010f9190610dd8565b61016061015b366004610dfa565b6103a1565b005b610160610170366004610e37565b61044d565b610160610183366004610e37565b61047e565b610140610196366004610d9d565b610499565b6101ae6101a9366004610e87565b6104ce565b60405161010f9190610eae565b6101ae6101c9366004610e87565b6104f5565b610120610539565b6101606101e4366004610ecf565b610548565b6101606101f7366004610ff5565b610557565b61012061020a366004610d9d565b61058f565b61010261021d366004611074565b6001600160a01b03918216600090815260056020908152604080832093909416825291909152205460ff1690565b60006001600160e01b031982167f80ac58cd0000000000000000000000000000000000000000000000000000000014806102ae57506001600160e01b031982167f5b5e139f00000000000000000000000000000000000000000000000000000000145b806102e257507f01ffc9a7000000000000000000000000000000000000000000000000000000006001600160e01b03198316145b92915050565b6060600080546102f7906110bd565b80601f0160208091040260200160405190810160405280929190818152602001828054610323906110bd565b80156103705780601f1061034557610100808354040283529160200191610370565b820191906000526020600020905b81548152906001019060200180831161035357829003601f168201915b5050505050905090565b600061038582610603565b506000908152600460205260409020546001600160a01b031690565b60006103ac82610499565b9050806001600160a01b0316836001600160a01b0316036103e85760405162461bcd60e51b81526004016103df90611146565b60405180910390fd5b336001600160a01b038216148061042257506001600160a01b038116600090815260056020908152604080832033845290915290205460ff165b61043e5760405162461bcd60e51b81526004016103df906111b0565b610448838361063a565b505050565b61045733826106b5565b6104735760405162461bcd60e51b81526004016103df9061121a565b610448838383610734565b61044883838360405180602001604052806000815250610557565b6000818152600260205260408120546001600160a01b0316806102e25760405162461bcd60e51b81526004016103df90611261565b60006104de600680546001019055565b60006104e960065490565b90506102e28382610869565b60006001600160a01b03821661051d5760405162461bcd60e51b81526004016103df906112cb565b506001600160a01b031660009081526003602052604090205490565b6060600180546102f7906110bd565b610553338383610971565b5050565b61056133836106b5565b61057d5760405162461bcd60e51b81526004016103df9061121a565b61058984848484610a13565b50505050565b606061059a82610603565b60006105b160408051602081019091526000815290565b905060008151116105d157604051806020016040528060008152506105fc565b806105db84610a46565b6040516020016105ec9291906112fd565b6040516020818303038152906040525b9392505050565b6000818152600260205260409020546001600160a01b03166106375760405162461bcd60e51b81526004016103df90611261565b50565b6000818152600460205260409020805473ffffffffffffffffffffffffffffffffffffffff19166001600160a01b038416908117909155819061067c82610499565b6001600160a01b03167f8c5be1e5ebec7d5bd14f71427d1e84f3dd0314c0f7b2291e5b200ac8c7c3b92560405160405180910390a45050565b6000806106c183610499565b9050806001600160a01b0316846001600160a01b0316148061070857506001600160a01b0380821660009081526005602090815260408083209388168352929052205460ff165b8061072c5750836001600160a01b03166107218461037a565b6001600160a01b0316145b949350505050565b826001600160a01b031661074782610499565b6001600160a01b03161461076d5760405162461bcd60e51b81526004016103df9061136f565b6001600160a01b0382166107935760405162461bcd60e51b81526004016103df906113d9565b826001600160a01b03166107a682610499565b6001600160a01b0316146107cc5760405162461bcd60e51b81526004016103df9061136f565b6000818152600460209081526040808320805473ffffffffffffffffffffffffffffffffffffffff199081169091556001600160a01b0387811680865260038552838620805460001901905590871680865283862080546001019055868652600290945282852080549092168417909155905184937fddf252ad1be2c89b69c2b068fc378daa952ba7f163c4a11628f55a4df523b3ef91a4505050565b6001600160a01b03821661088f5760405162461bcd60e51b81526004016103df9061141b565b6000818152600260205260409020546001600160a01b0316156108c45760405162461bcd60e51b81526004016103df9061145f565b6000818152600260205260409020546001600160a01b0316156108f95760405162461bcd60e51b81526004016103df9061145f565b6001600160a01b0382166000818152600360209081526040808320805460010190558483526002909152808220805473ffffffffffffffffffffffffffffffffffffffff19168417905551839291907fddf252ad1be2c89b69c2b068fc378daa952ba7f163c4a11628f55a4df523b3ef908290a45050565b816001600160a01b0316836001600160a01b0316036109a25760405162461bcd60e51b81526004016103df906114a3565b6001600160a01b0383811660008181526005602090815260408083209487168084529490915290819020805460ff1916851515179055517f17307eab39ab6107e8899845ad3d59bd9653f200f220920489ca2b5937696c3190610a06908590610d17565b60405180910390a3505050565b610a1e848484610734565b610a2a84848484610ae7565b6105895760405162461bcd60e51b81526004016103df9061150d565b60606000610a5383610be8565b600101905060008167ffffffffffffffff811115610a7357610a73610f02565b6040519080825280601f01601f191660200182016040528015610a9d576020820181803683370190505b5090508181016020015b600019017f3031323334353637383961626364656600000000000000000000000000000000600a86061a8153600a8504945084610aa7575b509392505050565b60006001600160a01b0384163b15610bdd57604051630a85bd0160e11b81526001600160a01b0385169063150b7a0290610b2b90339089908890889060040161151d565b6020604051808303816000875af1925050508015610b66575060408051601f3d908101601f19168201909252610b639181019061156c565b60015b610bc3573d808015610b94576040519150601f19603f3d011682016040523d82523d6000602084013e610b99565b606091505b508051600003610bbb5760405162461bcd60e51b81526004016103df9061150d565b805181602001fd5b6001600160e01b031916630a85bd0160e11b14905061072c565b506001949350505050565b6000807a184f03e93ff9f4daa797ed6e38ed64bf6a1f0100000000000000008310610c31577a184f03e93ff9f4daa797ed6e38ed64bf6a1f010000000000000000830492506040015b6d04ee2d6d415b85acef81000000008310610c5d576d04ee2d6d415b85acef8100000000830492506020015b662386f26fc100008310610c7b57662386f26fc10000830492506010015b6305f5e1008310610c93576305f5e100830492506008015b6127108310610ca757612710830492506004015b60648310610cb9576064830492506002015b600a83106102e25760010192915050565b6001600160e01b031981165b811461063757600080fd5b80356102e281610cca565b600060208284031215610d0157610d01600080fd5b600061072c8484610ce1565b8015155b82525050565b602081016102e28284610d0d565b60005b83811015610d40578181015183820152602001610d28565b50506000910152565b6000610d53825190565b808452602084019350610d6a818560208601610d25565b601f01601f19169290920192915050565b602080825281016105fc8184610d49565b80610cd6565b80356102e281610d8c565b600060208284031215610db257610db2600080fd5b600061072c8484610d92565b60006001600160a01b0382166102e2565b610d1181610dbe565b602081016102e28284610dcf565b610cd681610dbe565b80356102e281610de6565b60008060408385031215610e1057610e10600080fd5b6000610e1c8585610def565b9250506020610e2d85828601610d92565b9150509250929050565b600080600060608486031215610e4f57610e4f600080fd5b6000610e5b8686610def565b9350506020610e6c86828701610def565b9250506040610e7d86828701610d92565b9150509250925092565b600060208284031215610e9c57610e9c600080fd5b600061072c8484610def565b80610d11565b602081016102e28284610ea8565b801515610cd6565b80356102e281610ebc565b60008060408385031215610ee557610ee5600080fd5b6000610ef18585610def565b9250506020610e2d85828601610ec4565b634e487b7160e01b600052604160045260246000fd5b601f19601f830116810181811067ffffffffffffffff82111715610f3e57610f3e610f02565b6040525050565b6000610f5060405190565b9050610f5c8282610f18565b919050565b600067ffffffffffffffff821115610f7b57610f7b610f02565b601f19601f83011660200192915050565b82818337506000910152565b6000610fab610fa684610f61565b610f45565b905082815260208101848484011115610fc657610fc6600080fd5b610adf848285610f8c565b600082601f830112610fe557610fe5600080fd5b813561072c848260208601610f98565b6000806000806080858703121561100e5761100e600080fd5b600061101a8787610def565b945050602061102b87828801610def565b935050604061103c87828801610d92565b925050606085013567ffffffffffffffff81111561105c5761105c600080fd5b61106887828801610fd1565b91505092959194509250565b6000806040838503121561108a5761108a600080fd5b60006110968585610def565b9250506020610e2d85828601610def565b634e487b7160e01b600052602260045260246000fd5b6002810460018216806110d157607f821691505b6020821081036110e3576110e36110a7565b50919050565b602181526000602082017f4552433732313a20617070726f76616c20746f2063757272656e74206f776e6581527f7200000000000000000000000000000000000000000000000000000000000000602082015291505b5060400190565b602080825281016102e2816110e9565b603d81526000602082017f4552433732313a20617070726f76652063616c6c6572206973206e6f7420746f81527f6b656e206f776e6572206f7220617070726f76656420666f7220616c6c0000006020820152915061113f565b602080825281016102e281611156565b602d81526000602082017f4552433732313a2063616c6c6572206973206e6f7420746f6b656e206f776e6581527f72206f7220617070726f766564000000000000000000000000000000000000006020820152915061113f565b602080825281016102e2816111c0565b601881526000602082017f4552433732313a20696e76616c696420746f6b656e2049440000000000000000815291505b5060200190565b602080825281016102e28161122a565b602981526000602082017f4552433732313a2061646472657373207a65726f206973206e6f74206120766181527f6c6964206f776e657200000000000000000000000000000000000000000000006020820152915061113f565b602080825281016102e281611271565b60006112e5825190565b6112f3818560208601610d25565b9290920192915050565b600061130982856112db565b915061072c82846112db565b602581526000602082017f4552433732313a207472616e736665722066726f6d20696e636f72726563742081527f6f776e65720000000000000000000000000000000000000000000000000000006020820152915061113f565b602080825281016102e281611315565b602481526000602082017f4552433732313a207472616e7366657220746f20746865207a65726f2061646481527f72657373000000000000000000000000000000000000000000000000000000006020820152915061113f565b602080825281016102e28161137f565b60208082527f4552433732313a206d696e7420746f20746865207a65726f20616464726573739101908152600061125a565b602080825281016102e2816113e9565b601c81526000602082017f4552433732313a20746f6b656e20616c7265616479206d696e746564000000008152915061125a565b602080825281016102e28161142b565b601981526000602082017f4552433732313a20617070726f766520746f2063616c6c6572000000000000008152915061125a565b602080825281016102e28161146f565b603281526000602082017f4552433732313a207472616e7366657220746f206e6f6e20455243373231526581527f63656976657220696d706c656d656e74657200000000000000000000000000006020820152915061113f565b602080825281016102e2816114b3565b6080810161152b8287610dcf565b6115386020830186610dcf565b6115456040830185610ea8565b81810360608301526115578184610d49565b9695505050505050565b80516102e281610cca565b60006020828403121561158157611581600080fd5b600061072c848461156156fea264697066735822122043051c4e39cdedeb9ab901e4e7810b47bb221a30b542ee61e22cf05a51a4ef9664736f6c63430008110033a2646970667358221220c33e6c33f956f3ecbfcf33554d50a56dfeb5fd8244b2fb3128dadd5b38b7282f64736f6c63430008110033",
  "linkReferences": {},
  "deployedLinkReferences": {}
}